:100000000C9468000C94D7060C94B0060C949000E5
:100010000C9490000C9490000C9490000C94900020
:100020000C9490000C9490000C9490000C94900010
:100030000C9490000C9490000C9490000C94900000
:100040000C9466060C9490000C9434060C940E06E6
:100050000C9490000C9490000C9490000C949000E0
:100060000C9490000C9490000000000023002600E7
:10007000290000000000240027002A0000000000E2
:10008000250028002B0004040404040404040202D4
:100090000202020203030303030301020408102007
:1000A0004080010204081020010204081020000012
:1000B0000008000201000003040700000000000027
:1000C000000009467265652052414D3A20003F0C00
:1000D00011241FBECFEFD8E0DEBFCDBF12E0A0E0FD
:1000E000B1E0E0E8F5E202C005900D92A236B1075A
:1000F000D9F724E0A2E6B2E001C01D92A536B2070E
:10010000E1F710E0C8E6D0E004C02197FE010E94AC
:100110003C0DC736D107C9F70E94FE060C94BE12EB
:100120000C940000CF92DF92EF92FF920F931F93F7
:10013000CF93DF936C017A018B01C0E0D0E0CE1544
:10014000DF0589F0D8016D918D01D601ED91FC910B
:100150000190F081E02DC6010995892B11F47E01F3
:1001600002C02196ECCFC701DF91CF911F910F9173
:10017000FF90EF90DF90CF900895FC01918D828DDC
:10018000981761F0828DDF01A80FB11D5D968C91EB
:10019000928D9F5F9F73928F90E008958FEF9FEFF6
:1001A0000895FC01918D828D981731F0828DE80FB2
:1001B000F11D858D90E008958FEF9FEF0895FC016C
:1001C000918D228D892F90E0805C9F4F821B910939
:1001D0008F73992708958EEB93E00E94DF0021E052
:1001E000892B09F420E0822F0895FC01848DDF0122
:1001F000A80FB11DA35ABF4F2C91848D90E001969A
:100200008F739927848FA689B7892C93A089B18988
:100210008C9180648C93938D848D981306C0028892
:10022000F389E02D80818F7D80830895EF92FF9286
:100230000F931F93CF93DF93EC0181E0888F9B8D09
:100240008C8D981305C0E889F989808185FD24C0CB
:10025000F62E0B8D10E00F5F1F4F0F731127E02E4E
:100260008C8DE8120CC00FB607FCFACFE889F9892B
:10027000808185FFF5CFCE010E94F500F1CF8B8DF7
:10028000FE01E80FF11DE35AFF4FF0820B8FEA8960
:10029000FB898081806207C0EE89FF896083E889DD
:1002A000F98980818064808381E090E0DF91CF9143
:1002B0001F910F91FF90EF900895CF93DF93EC0182
:1002C000888D8823C9F0EA89FB89808185FD05C076
:1002D000A889B9898C9186FD0FC00FB607FCF5CFB0
:1002E000808185FFF2CFA889B9898C9185FFEDCFF8
:1002F000CE010E94F500E7CFDF91CF91089580E015
:1003000090E0892B29F00E94EB0081110C940000F1
:100310000895833081F028F4813099F08230A1F083
:1003200008958730A9F08830B9F08430D1F48091F5
:1003300080008F7D03C0809180008F778093800044
:10034000089584B58F7702C084B58F7D84BD0895EC
:100350008091B0008F7703C08091B0008F7D809333
:10036000B00008951F93CF93DF93282F30E0F90159
:10037000E255FF4F8491F901E656FF4FD491F90100
:10038000EA57FF4FC491CC23C9F0162F81110E9468
:100390008901EC2FF0E0EE0FFF1FE458FF4FA5910D
:1003A000B4918FB7F894111105C09C91ED2FE09591
:1003B000E92302C0EC91ED2BEC938FBFDF91CF913D
:1003C0001F910895CF93DF9390E0FC01E656FF4F15
:1003D0002491FC01EA57FF4F8491882361F190E05A
:1003E000880F991FFC01EE58FF4FC591D491FC0175
:1003F000E458FF4FA591B491611109C09FB7F894DB
:100400008881209582238883EC912E230BC0623053
:1004100061F49FB7F8943881822F80958323888375
:10042000EC912E2B2C939FBF06C08FB7F894E881D8
:100430002E2B28838FBFDF91CF91089582309105B5
:1004400038F0880F991F880F991F05970197F1F7CA
:10045000089561E085E00E94B2018FEC93E00E9474
:100460001E0260E085E00E94B2018AEA95E00C94E9
:100470001E0261E085E00E94B2018AEF90E00E94D6
:100480001E0260E085E00E94B2018AEA95E00C94C9
:100490001E023FB7F8948091780290917902A09162
:1004A0007A02B0917B0226B5A89B05C02F3F19F0B8
:1004B0000196A11DB11D3FBFBA2FA92F982F8827E4
:1004C000820F911DA11DB11DBC01CD0142E0660F3F
:1004D000771F881F991F4A95D1F708958F929F9291
:1004E000AF92BF92CF92DF92EF92FF926B017C01AD
:1004F0000E9449024B015C01C114D104E104F104E2
:10050000F1F00E944902DC01CB0188199909AA097E
:10051000BB09883E9340A105B10570F321E0C21AE2
:10052000D108E108F10888EE880E83E0981EA11C2E
:10053000B11CC114D104E104F10419F7DDCFFF901F
:10054000EF90DF90CF90BF90AF909F908F900895E5
:100550000895CF93C82F8A3019F48DE00E94A90224
:100560006C2F8EEB93E00E94160121E030E00197A2
:1005700011F420E030E0C901CF910895CF93DF93CB
:10058000CDB7DEB7AA970FB6F894DEBF0FBECDBFCA
:10059000962F891778F0292F30E0F901E657FD4FA3
:1005A0004081E1E0F0E0EC0FFD1FE20FF31F40831C
:1005B0009F5FEFCF962F980F861780F0E62FF0E021
:1005C000292F261BA1E0B0E0AC0FBD1FA20FB11D6B
:1005D0002C91E657FD4F20836F5FEECFAA960FB6A2
:1005E000F894DEBF0FBECDBFDF91CF910895CF92BB
:1005F000DF92EF92FF92CF93DF93E0EBF0E08491F4
:10060000ECE9F0E0D491E8E8F0E0C491CC2309F4FF
:1006100095C081110E948901EC2FF0E0EE0FFF1FC1
:10062000E859FF4FA591B491EC91ED2309F486C0F0
:100630000E94490260936F0270937002809371026E
:1006400090937202C0907302D0907402E090750291
:10065000F0907602DC01CB018C199D09AE09BF092F
:100660006C017D0121EBC21A2DE1D20AE108F108EB
:1006700021E03BEDC31635E0D306E104F10408F0B8
:1006800020E06C017D0131E1C31A3EE0D30AE108AC
:10069000F1083FE1C31633E0D306E104F10498F01A
:1006A00081549640A109B1098F319340A105B1054C
:1006B00008F453C0222309F45EC010926E0281E058
:1006C00080936D0214C02111F8CF80916E028B329D
:1006D00038F4E0916E02F0E0E657FD4F81E0808350
:1006E00080916E028F5F80936E0210926D028091F6
:1006F0006D02882361F080916C028F5F80936C02A1
:1007000080916C028C3028F010926B0202C0109223
:100710006C0280916E028A32A8F161E08CE00E9446
:10072000B20180916B028F5F80936B0210926E0218
:1007300010926C0281E08093500324C060E08CE052
:100740000E94B2010E944902609373027093740286
:10075000809375029093760215C02111AECF8091DF
:100760006E028B3208F0BCCFE0916E02F0E0E657EB
:10077000FD4F1082B5CF10926E0210926D02109252
:100780006C02B5CFDF91CF91FF90EF90DF90CF90CB
:100790000895009769F0FC0101900020E9F7319776
:1007A000AF01481B590BBC018EEB93E00C949200F7
:1007B00080E090E008958F929F92AF92BF920F9346
:1007C0001F93CF93DF93CDB7DEB7A1970FB6F89401
:1007D000DEBF0FBECDBF19A2423008F44AE08E0141
:1007E0000F5D1F4F842E912CA12CB12CA5019401DB
:1007F0000E94900CE62FB901CA0101501109EA309C
:1008000014F4E05D01C0E95CD801EC93232B242BA8
:10081000252B61F7C8010E94C903A1960FB6F89471
:10082000DEBF0FBECDBFDF91CF911F910F91BF9063
:10083000AF909F908F900895CF92DF92EF92FF92AA
:10084000CF93DF9397FF21C06B017C01E091BE0342
:10085000F091BF030190F081E02D6DE28EEB93E00B
:100860000995EC0166277727CB016C197D098E0964
:100870009F094AE00E94DB038C0F9D1FDF91CF91FF
:10088000FF90EF90DF90CF9008954AE0DF91CF91F5
:10089000FF90EF90DF90CF900C94DB034F925F922C
:1008A0006F927F928F929F92AF92BF92CF92DF9280
:1008B000EF92FF926B017C01B42E9B01AC010E9470
:1008C0008F0F882319F08BE191E027C026013701B3
:1008D000E89477F82FEF3FEF4FE75FE7C301B201EE
:1008E0000E948F0F81110DC02FEF3FEF4FE75FE7A1
:1008F000C301B2010E94BE0D18161CF48FE191E0F5
:100900000CC02FEF3FEF4FE75FE4C701B6010E9435
:100910001D0F181684F483E291E0FF90EF90DF90B2
:10092000CF90BF90AF909F908F907F906F905F908F
:100930004F900C94C9032FEF3FEF4FE75FECC701D7
:10094000B6010E94BE0D87FDE6CF20E030E0A90190
:10095000C701B6010E94BE0D87FF11C0E091BE0322
:10096000F091BF030190F081E02D6DE28EEB93E0FA
:1009700009954C01F7FAF094F7F8F09402C0812C35
:10098000912CA12C60E070E080E09FE3AB1441F07B
:1009900020E030E040E251E40E94C30DA394F6CF82
:1009A0009B01AC01C701B6010E94520D2B013C0115
:1009B0000E943C0E6B017C010E946B0E9B01AC01FE
:1009C000C301B2010E94510D2B013C014AE0C70155
:1009D000B6010E94DB037C01E80CF91CBB2031F05E
:1009E00087E291E00E94C903E80EF91EDB2CDD20AE
:1009F00021F120E030E040E251E4C301B2010E9465
:100A0000220F2B013C010E943C0E4B01A12CB12C6A
:100A10004AE0C501B4010E94DB03E80EF91EC501DE
:100A2000B4010E946B0E9B01AC01C301B2010E9494
:100A3000510D2B013C01DA94DACFC701FF90EF9002
:100A4000DF90CF90BF90AF909F908F907F906F90EE
:100A50005F904F900895CF93DF9342E00E944E0441
:100A6000EC0189E291E00E94C9038C0F9D1FDF9188
:100A7000CF910895CF93DF93EC0183FF03C00E94D1
:100A8000390202C00E942902C2FF03C00E9439023B
:100A900002C00E942902C1FF03C00E94390202C0A5
:100AA0000E942902C0FF03C00E94390202C00E94B6
:100AB0002902DF93CF938CE291E09F938F9385E699
:100AC00093E09F938F930E94E60F0F900F900F90EB
:100AD0000F900F900F90DF91CF91089510926403C3
:100AE000109263038AE090E0909362038093610325
:100AF0008091BD03A82FA695A695A695B0E0B093CA
:100B00005E03A0935D0387706091590370915A034F
:100B10004091570350915803E0915503F0915603CB
:100B200090E09D01280F391F260F371F240F351F16
:100B30002E0F3F1F260F371F240F351F217033271D
:100B40003093520320935103880F991F820F931FF4
:100B500090935C0380935B0320915F03309160036B
:100B6000265F3F4FA20FB31F8A0F9B1F860F971F51
:100B7000840F951F8E0F9F1F680F791F460F571FF9
:100B80004F705527509354034093530380E090E0F7
:100B90000E943A0580916103909162030E943A0598
:100BA00080915F03909160030E943A0580915D03FC
:100BB00090915E030E943A0580915B0390915C03E3
:100BC0000E943A058091590390915A030E943A0578
:100BD00080915703909158030E943A0580915503E4
:100BE000909156030E943A058091590390915A03BF
:100BF0000E943A0580915703909158030E943A054C
:100C000080915303909154030E943A0564E170E08F
:100C100080E090E00C946E020E94940F1F920F925D
:100C20000FB60F9211242F933F934F935F936F93BF
:100C30007F938F939F93AF93BF93EF93FF938EEB2D
:100C400093E00E94F500FF91EF91BF91AF919F91CA
:100C50008F917F916F915F914F913F912F910F9065
:100C60000FBE0F901F9018951F920F920FB60F9204
:100C700011242F938F939F93EF93FF93E091CE03D3
:100C8000F091CF038081E091D403F091D50382FDF0
:100C900012C090818091D7038F5F8F732091D8030A
:100CA000821751F0E091D703F0E0E254FC4F958FAA
:100CB0008093D70301C08081FF91EF919F918F9125
:100CC0002F910F900FBE0F901F9018951F920F92AB
:100CD0000FB60F9211242F933F938F939F93AF934F
:100CE000BF938091B4029091B502A091B602B091E9
:100CF000B7023091770223E0230F2D3720F40196BD
:100D0000A11DB11D05C026E8230F0296A11DB11D2E
:100D1000209377028093B4029093B502A093B60219
:100D2000B093B7028091780290917902A0917A02F3
:100D3000B0917B020196A11DB11D80937802909322
:100D40007902A0937A02B0937B02BF91AF919F91F9
:100D50008F913F912F910F900FBE0F901F9018957C
:100D60001F920F920FB60F9211242F933F934F9320
:100D70005F936F937F938F939F93AF93BF93EF9303
:100D8000FF93E0910301F09104010995FF91EF9128
:100D9000BF91AF919F918F917F916F915F914F9193
:100DA0003F912F910F900FBE0F901F9018951F929B
:100DB0000F920FB60F9211242F933F934F935F938F
:100DC0006F937F938F939F93AF93BF93EF93FF9313
:100DD000E0910101F09102010995FF91EF91BF911E
:100DE000AF919F918F917F916F915F914F913F91C3
:100DF0002F910F900FBE0F901F901895CF93DF93F8
:100E0000CDB7DEB72A970FB6F894DEBF0FBECDBFC1
:100E1000789484B5826084BD84B5816084BD85B5D5
:100E2000826085BD85B5816085BD80916E008160E1
:100E300080936E0010928100809181008260809387
:100E40008100809181008160809381008091800089
:100E50008160809380008091B10084608093B100B4
:100E60008091B00081608093B00080917A008460AE
:100E700080937A0080917A00826080937A008091DA
:100E80007A00816080937A0080917A0080688093F4
:100E90007A001092C10089EA92E0909385028093D3
:100EA0008402109287021092860282E080937F0271
:100EB00010928902109288022CE732E0309362048B
:100EC00020936104E091CE03F091CF038083E09101
:100ED000CA03F091CB031082E091CC03F091CD03D3
:100EE00080E180831092D603E091D203F091D30386
:100EF00086E08083E091D003F091D103808180610E
:100F00008083E091D003F091D10380818860808359
:100F1000E091D003F091D103808180688083E091DB
:100F2000D003F091D10380818F7D808361E085E0E3
:100F30000E94E20160E085E00E94B20160E082E090
:100F40000E94E20187EF92E09093020180930101F9
:100F5000809169008C7F816080936900E89A61E0EC
:100F60008DE00E94E20160E08DE00E94B20161E04C
:100F70008CE00E94E20160E08CE00E94B2018FE20E
:100F800091E00E94C90389E291E00E94C90302EC4A
:100F900010E0F8016491611109C080915B049091A7
:100FA0005C04009791F485E694E00FC0E091BE03E5
:100FB000F091BF030190F081E02D8EEB93E0099555
:100FC0000F5F1F4F892B29F7E8CFBE016F5F7F4F5F
:100FD000681B790B072E000C880B990B0E941C04D0
:100FE00089E291E00E94C9038FE291E00E94C90367
:100FF00089E291E00E94C90389E291E00E94C9035D
:1010000022242394312C809150032FB7882309F494
:1010100069C1F8948091B4029091B502A091B60292
:10102000B091B7022FBF80934C0390934D03A093D0
:101030004E03B0934F03F89461E08AE00E94B2013E
:1010400010924403109245031092460310924703F6
:10105000109248031092490310924A0310924B03D6
:1010600062E089E00E94BE026CE08DE00E94BE0258
:101070006EE089E10E94BE026AE181E20E94BE0246
:1010800062E289E20E94BE02109146031295169513
:1010900016951370B090470380914803582F5370F2
:1010A000482F46954695437082958F7090914903DD
:1010B000692F6295607F262F282B392F32953F703C
:1010C000E0904A03F0904B0380E090E0FC01E6578B
:1010D000FD4F8230910594F46081613041F4B1019B
:1010E000082E02C0660F771F0A94E2F702C060E084
:1010F00070E0610F711D162F137085C0682F7EEF91
:10110000780F783090F46081613059F4BC016250FE
:101110007109D10102C0AA0FBB1F6A95E2F7BD0198
:1011200002C060E070E0B62A6EC076EF780F7230D1
:10113000A0F46081613059F4BC016A507109F10179
:1011400002C0EE0FFF1F6A95E2F7BF0102C060E028
:1011500070E0652B562F537056C074EF780F7230C5
:10116000A0F46081613059F4BC016C507109D10167
:1011700002C0AA0FBB1F6A95E2F7BD0102C060E082
:1011800070E0642B462F43703EC072EF780F7C30C6
:10119000A0F46081613059F4BC016E507109F10115
:1011A00002C0EE0FFF1F6A95E2F7BF0102C060E0C8
:1011B00070E0262B372B3F7026C06A51683090F4C0
:1011C0006081613059F4BC016A517109D10102C0DA
:1011D000AA0FBB1F6A95E2F7BD0102C060E070E094
:1011E000E62A11C06081613059F4BC016252710974
:1011F000F10102C0EE0FFF1F6A95E2F7BF0102C0C6
:1012000060E070E0F62A01968A32910509F05ECF1F
:10121000F0924B031295110F110F107C8091460331
:101220008F73182B10934603B0924703942F93703B
:10123000990F990FA22EA294A0EFAA22952BA92A6A
:10124000A0924803032F0295007F822F82958F7012
:10125000082B00934903E0924A0370904403809066
:10126000450370923C0380923D0310933E03B0927D
:101270003F03A092400300934103E0924203F092A7
:1012800043038091390391E0980F9F70992E9091BC
:101290003803991509F4EEC21F928F938FE691E0FF
:1012A0009F938F930E94990FE091390328E0E29F6A
:1012B000F0011124E854FD4F708281821283B382C1
:1012C000A4820583E682F782909239030F900F90F3
:1012D0000F900F9060E08AE00E94B20110925003DC
:1012E0007894B9C2F8948091B4029091B502A0911B
:1012F000B602B091B7022FBF40914C0350914D03FD
:1013000060914E0370914F03841B950BA60BB70B96
:1013100089389341A105B10508F49DC261E086E0DA
:101320000E94B20110923C0310923D0310923E03C2
:1013300010923F0310924003109241031092420317
:10134000109243034CE353E050933B0340933A0322
:101350008091380390913903891709F474C21F9260
:101360008F93ABE7B1E0BF93AF930E94990F809149
:10137000380328E0829FF0011124E854FD4F90814A
:1013800090933C03918190933D03928190933E030F
:10139000938190933F039481909340039581909320
:1013A00041039681909342039781909343038F5F0B
:1013B0008F70809338038AE090E00E94AF0F0F9007
:1013C0000F900F900F9088E090E0F7E0AF2EB12CD7
:1013D0007C0131E0E31AF10887010C5B1C4FD80156
:1013E0008C9190E00A2C02C0959587950A94E2F7BB
:1013F00081701F928F93AFE8B1E0BF93AF930E94CB
:10140000990FF1E0AF1AB1080F900F900F900F9065
:101410002FEFA216B20619F7C7010097B1F68EE8B2
:1014200091E00E94B60FE0913A03F0913B03708186
:1014300061818281538144813581268197817093B6
:1014400044036093450380934603509347034093BE
:1014500048033093490320934A0390934B038295AA
:101460008695869583701F928F93A2E9B1E0BF9312
:10147000AF930E94990F809147031F928F93AAE91F
:10148000B1E0BF93AF930E94990F809147038F778C
:101490001F928F93A2EAB1E0BF93AF930E94990F7E
:1014A0008091480383701F928F938CEA91E09F9301
:1014B0008F930E94990F809148038695869583703B
:1014C0001F928F9385EB91E09F938F930E94990FCA
:1014D0002091480322952F7030914903432F429564
:1014E000407F842F822B932F92959F707C01EE2456
:1014F000FFE0FF22EF2CFF249C012F703327322FB7
:101500002227E20EF31E807F9927E80EF91EB7010D
:1015100080E090E00E946B0E20E030E041E654E471
:101520000E94510D20E030E040E251E40E94C30DE2
:1015300020E030E040E052E40E94510D26E636E61D
:1015400046EE5FE30E94C30D2B013C01FF92EF9238
:101550008DEB91E09F938F930E94990F8CEC91E01B
:101560009F938F930E94990FC301B2010E942B0594
:1015700080914A031F928F9385ED91E09F938F9303
:101580000E94990F80914B031F928F938EED91E0F3
:101590009F938F930E94990F209144032B83309146
:1015A00045033C83409146034D83509147035E833E
:1015B000809148038F83909149039887A0914A03B3
:1015C000A987B0914B03BA87A12C6AECB62E7AE9B1
:1015D000C72EEBE3DE2EE12CF12C00E010E0BC0185
:1015E000CD010E94BF0C79018A014B015C010FB64D
:1015F000F894DEBF0FBECDBF87EE91E09F938F932F
:101600000E94990F0F900F909701A801B401C50196
:10161000A0E00E941C0D21F0B701C8010E941C042B
:101620009701A80160E07AEC8AE99BE30E946C0CC8
:101630002B813C814D815E81261B370B480B590B5A
:10164000CA01B9010E941C048EE891E00E94B60F05
:101650008DEE91E00E94B60F109147031F776091C5
:101660004A0370E080E090E00E946B0E4B015C0149
:101670004092B5035092B6036092B7037092B803DC
:101680001093BD0361E08DE00E94B201C090B503EC
:10169000D090B603E090B703F090B803C701B6014D
:1016A0000E94350ECB016AE070E00E947C0C6B5FFB
:1016B0007F4F70935A03609359039093580380931C
:1016C000570320E030E040E251E4C701B6010E9438
:1016D000220F0E94350ECB016AE070E00E947C0C64
:1016E00090935603809355031092600310925F030A
:1016F0000E946E0560E08DE00E94B20168EE73E02A
:1017000080E090E00E946E028092B9039092BA034A
:10171000A092BB03B092BC031093BD0361E08DE0C7
:101720000E94B201C090B903D090BA03E090BB030D
:10173000F090BC03C701B6010E94350ECB016AE0F0
:1017400070E00E947C0C70935A036093590390934D
:1017500058038093570320E030E040E251E4C70192
:10176000B6010E94220F0E94350ECB016AE070E0A4
:101770000E947C0C90935603809355038EE090E07A
:101780009093600380935F030E946E0560E08DE09C
:101790000E94B2018091BD031F928F931F921F93ED
:1017A0008AE292E09F938F930E94990F8DE392E0DB
:1017B0000E94C90342E0C301B2010E944E0489E0C5
:1017C00090E00E94AF0F81E492E00E94C903C5013E
:1017D000B4010E942B051F921F9385E492E09F9312
:1017E0008F930E94990F8DE392E00E94C90360914C
:1017F000B5037091B6038091B7039091B80342E0AE
:101800000E944E0489E090E00E94AF0F81E492E0D4
:101810000E94C9036091B9037091BA038091BB0320
:101820009091BC030E942B0568EE73E080E090E08D
:101830000E946E028DEE91E00E94B60F0FB6F894F2
:10184000DEBF0FBECDBF10924C0310924D0310921D
:101850004E0310924F0360E086E00E94B20160E008
:101860008AE00E94B20160E08DE00E94B2010E9415
:101870007F01C9CB81E592E00E94B60F2BCDEEEB44
:10188000F3E01382128288EE93E0A0E0B0E084835C
:101890009583A683B7838FE091E09183808385EC65
:1018A00090E09587848784EC90E09787868780EC2A
:1018B00090E0918B808B81EC90E0938B828B82EC1B
:1018C00090E0958B848B86EC90E0978B868B118EC5
:1018D000128E138E148E0895DB018F939F930E94B6
:1018E000B20CBF91AF91A29F800D911DA39F900D4F
:1018F000B29F900D1124089597FB072E16F40094C3
:1019000007D077FD09D00E94280D07FC05D03EF4D2
:10191000909581959F4F0895709561957F4F08959B
:10192000A1E21A2EAA1BBB1BFD010DC0AA1FBB1FE3
:10193000EE1FFF1FA217B307E407F50720F0A21B55
:10194000B30BE40BF50B661F771F881F991F1A94C2
:1019500069F760957095809590959B01AC01BD01EC
:10196000CF0108950E94420DA59F900DB49F900D48
:10197000A49F800D911D11240895689401C0E894DE
:101980008F929F92CF93DF930E94CB0CDF91CF91E8
:101990009F908F90089588249924F401E401B0E485
:1019A0009F93AA279A158B049C04ED05FE05CF058D
:1019B000D007A10798F4AD2FDC2FCF2FFE2FE92DF4
:1019C000982C892E982F872F762F652F542F432FF1
:1019D000322F2227B85031F7BF9127C01B2EBF915D
:1019E000BB27220F331F441F551F661F771F881FF9
:1019F000991F881C991CEE1FFF1FCC1FDD1FAA1FFB
:101A0000BB1F8A149B04EC05FD05CE05DF05A0076E
:101A1000B10748F08A189B08EC09FD09CE09DF09D7
:101A2000A00BB10B21601A94E1F62EF49401AF01E2
:101A3000BE01CD01000C08950024A7FD00942A17D3
:101A40003005400550056005700580059005089536
:101A5000AA1BBB1B51E107C0AA1FBB1FA617B707D4
:101A600010F0A61BB70B881F991F5A95A9F78095F0
:101A70009095BC01CD010895EE0FFF1F0590F491E4
:101A8000E02D0994A29FB001B39FC001A39F700DE8
:101A9000811D1124911DB29F700D811D1124911D76
:101AA00008955058BB27AA270E94690D0C94E30E95
:101AB0000E94D50E38F00E94DC0E20F039F49F3FD2
:101AC00019F426F40C94D20E0EF4E095E7FB0C9476
:101AD000CC0EE92F0E94F40E58F3BA176207730771
:101AE0008407950720F079F4A6F50C94160F0EF4F0
:101AF000E0950B2EBA2FA02D0B01B90190010C011E
:101B0000CA01A0011124FF27591B99F0593F50F435
:101B1000503E68F11A16F040A22F232F342F44278D
:101B2000585FF3CF469537952795A795F040539585
:101B3000C9F77EF41F16BA0B620B730B840BBAF055
:101B40009150A1F0FF0FBB1F661F771F881FC2F7C0
:101B50000EC0BA0F621F731F841F48F487957795D4
:101B60006795B795F7959E3F08F0B0CF9395880F8E
:101B700008F09927EE0F9795879508950E94A80E73
:101B800008F481E008950E94D70D0C94E30E0E94A2
:101B9000DC0E58F00E94D50E40F029F45F3F29F08A
:101BA0000C94CC0E51110C94170F0C94D20E0E9471
:101BB000F40E68F39923B1F3552391F3951B550B5C
:101BC000BB27AA2762177307840738F09F5F5F4F10
:101BD000220F331F441FAA1FA9F335D00E2E3AF04F
:101BE000E0E832D091505040E695001CCAF72BD067
:101BF000FE2F29D0660F771F881FBB1F26173707B8
:101C00004807AB07B0E809F0BB0B802DBF01FF27E9
:101C100093585F4F3AF09E3F510578F00C94CC0EEC
:101C20000C94170F5F3FE4F3983ED4F386957795B5
:101C30006795B795F7959F5FC9F7880F911D9695A2
:101C4000879597F90895E1E0660F771F881FBB1FFE
:101C5000621773078407BA0720F0621B730B840BAB
:101C6000BA0BEE1F88F7E09508950E943C0E689429
:101C7000B1110C94170F08950E94FC0E88F09F5725
:101C800098F0B92F9927B751B0F0E1F0660F771FA0
:101C9000881F991F1AF0BA95C9F714C0B13091F096
:101CA0000E94160FB1E008950C94160F672F782F3D
:101CB0008827B85F39F0B93FCCF38695779567955B
:101CC000B395D9F73EF490958095709561957F4FC7
:101CD0008F4F9F4F0895E89409C097FB3EF490956D
:101CE0008095709561957F4F8F4F9F4F9923A9F0F5
:101CF000F92F96E9BB279395F69587957795679584
:101D0000B795F111F8CFFAF4BB0F11F460FF1BC0C7
:101D10006F5F7F4F8F4F9F4F16C0882311F096E95A
:101D200011C0772321F09EE8872F762F05C0662308
:101D300071F096E8862F70E060E02AF09A95660FC1
:101D4000771F881FDAF7880F9695879597F908957A
:101D5000990F0008550FAA0BE0E8FEEF16161706BC
:101D6000E807F907C0F012161306E407F50798F024
:101D7000621B730B840B950B39F40A2661F0232B3D
:101D8000242B252B21F408950A2609F4A140A695B9
:101D90008FEF811D811D089597F99F6780E870E09E
:101DA00060E008959FEF80EC089500240A941616D1
:101DB000170618060906089500240A941216130639
:101DC000140605060895092E0394000C11F48823C7
:101DD00052F0BB0F40F4BF2B11F460FF04C06F5FE3
:101DE0007F4F8F4F9F4F089557FD9058440F551FB9
:101DF00059F05F3F71F04795880F97FB991F61F08D
:101E00009F3F79F087950895121613061406551F03
:101E1000F2CF4695F1DF08C0161617061806991F6F
:101E2000F1CF86957105610508940895E894BB2764
:101E300066277727CB0197F908950E94A80E08F42A
:101E40008FEF08950E94350F0C94E30E0E94D50E7B
:101E500038F00E94DC0E20F0952311F00C94CC0E8B
:101E60000C94D20E11240C94170F0E94F40E70F3F0
:101E7000959FC1F3950F50E0551F629FF001729F2F
:101E8000BB27F00DB11D639FAA27F00DB11DAA1F3E
:101E9000649F6627B00DA11D661F829F2227B00D8B
:101EA000A11D621F739FB00DA11D621F839FA00D16
:101EB000611D221F749F3327A00D611D231F849F66
:101EC000600D211D822F762F6A2F11249F575040BD
:101ED0009AF0F1F088234AF0EE0FFF1FBB1F661F38
:101EE000771F881F91505040A9F79E3F510580F001
:101EF0000C94CC0E0C94170F5F3FE4F3983ED4F390
:101F0000869577956795B795F795E7959F5FC1F7A4
:101F1000FE2B880F911D9695879597F908950E943D
:101F2000A80E880B990B089581E090E0F8940C942A
:101F3000BE12A0E0B0E0EFE9FFE00C949712AE0112
:101F40004B5F5F4FFA0161917191AF018091610424
:101F5000909162040E940910E2E00C94B312609127
:101F60006104709162040E94F11108950F931F9310
:101F7000CF93DF93E0916104F0916204238121FF0C
:101F80001BC08C01D0E0C0E0F80181918F0160910D
:101F9000610470916204DB011896ED91FC91199730
:101FA000882331F00995892B79F3DFEFCFEFECCF60
:101FB0008AE00995892B19F08FEF9FEF02C08D2FD2
:101FC0009C2FDF91CF911F910F910895AEE0B0E06B
:101FD000ECEEFFE00C9495120D891E8986E08C834F
:101FE0001A8309838FEF9FE79E838D83AE01475E3F
:101FF0005F4F6F89788DCE0101960E9409102F8165
:102000003885F801E20FF31F10822E96E4E00C945D
:10201000B112ACE0B0E0EFE0F0E10C9487127C018B
:102020006B018A01FC0117821682838181FFBDC189
:10203000CE0101964C01F7019381F60193FD859144
:1020400093FF81916F01882309F4ABC1853239F484
:1020500093FD859193FF81916F01853229F4B7013A
:1020600090E00E94F111E7CF512C312C20E020327A
:10207000A0F48B3269F030F4803259F0833269F485
:1020800020612CC08D3239F0803339F4216026C0B4
:102090002260246023C0286021C027FD27C030EDC6
:1020A000380F3A3078F426FF06C0FAE05F9E300D14
:1020B0001124532E13C08AE0389E300D1124332E84
:1020C00020620CC08E3221F426FD6BC1206406C054
:1020D0008C3611F4206802C0883641F4F60193FD75
:1020E000859193FF81916F018111C1CF982F9F7DC1
:1020F0009554933028F40C5F1F4FFFE3F9830DC014
:10210000833631F0833771F0833509F05BC022C02C
:10211000F801808189830E5F1F4F44244394512C22
:10212000540115C03801F2E06F0E711CF801A08057
:10213000B18026FF03C0652D70E002C06FEF7FEF16
:10214000C5012C870E94E6112C0183012C852F7775
:10215000222E17C03801F2E06F0E711CF801A0802A
:10216000B18026FF03C0652D70E002C06FEF7FEFE6
:10217000C5012C870E94DB112C012C852068222EA2
:10218000830123FC1BC0832D90E048165906B0F450
:10219000B70180E290E00E94F1113A94F4CFF5018A
:1021A00027FC859127FE81915F01B70190E00E9495
:1021B000F11131103A94F1E04F1A510841145104D1
:1021C00071F7E5C0843611F0893639F5F80127FF3B
:1021D00007C060817181828193810C5F1F4F08C0AD
:1021E00060817181072E000C880B990B0E5F1F4FC9
:1021F0002F76722E97FF09C0909580957095619506
:102200007F4F8F4F9F4F2068722E2AE030E0A4014D
:102210000E942912A82EA81844C0853729F42F7EC1
:10222000B22E2AE030E025C0F22FF97FBF2E8F3684
:10223000C1F018F4883579F0B4C0803719F08837C8
:1022400021F0AFC02F2F2061B22EB4FE0DC08B2D18
:102250008460B82E09C024FF0AC09F2F9660B92E53
:1022600006C028E030E005C020E130E002C020E1F7
:1022700032E0F801B7FE07C06081718182819381ED
:102280000C5F1F4F06C06081718180E090E00E5F9F
:102290001F4FA4010E942912A82EA818FB2DFF771A
:1022A0007F2E76FE0BC0372D3E7FA51450F474FEB2
:1022B0000AC072FC08C0372D3E7E05C0BA2C372DEF
:1022C00003C0BA2C01C0B52C34FF0DC0FE01EA0DCD
:1022D000F11D8081803311F4397E09C032FF06C0C0
:1022E000B394B39404C0832F867809F0B39433FD7C
:1022F00013C030FF06C05A2CB31418F4530C5B18EB
:10230000B32CB31468F4B70180E290E03C870E94DC
:10231000F111B3943C85F5CFB31410F43B1801C010
:10232000312C34FF12C0B70180E390E03C870E945B
:10233000F1113C8532FF17C031FD03C088E790E002
:1023400002C088E590E0B7010CC0832F867859F071
:1023500031FF02C08BE201C080E237FD8DE2B701A0
:1023600090E00E94F111A51438F4B70180E390E0E9
:102370000E94F1115A94F7CFAA94F401EA0DF11DCD
:102380008081B70190E00E94F111A110F5CF3320B8
:1023900009F451CEB70180E290E00E94F1113A9425
:1023A000F6CFF7018681978102C08FEF9FEF2C96C1
:1023B000E2E10C94A312FC01059061507040011001
:1023C000D8F7809590958E0F9F1F0895FC0161505E
:1023D000704001900110D8F7809590958E0F9F1F47
:1023E00008950F931F93CF93DF93FB01238121FD6A
:1023F00003C08FEF9FEF28C022FF16C04681578190
:10240000248135814217530744F4A081B1819D0195
:102410002F5F3F4F318320838C93268137812F5F3D
:102420003F4F3783268310C0EB01092F182F0084FC
:10243000F185E02D0995892BE1F68E819F8101962A
:102440009F838E83812F902FDF91CF911F910F91CA
:102450000895FA01AA27283051F1203181F1E8943A
:102460006F936E7F6E5F7F4F8F4F9F4FAF4FB1E087
:102470003ED0B4E03CD0670F781F891F9A1FA11D82
:10248000680F791F8A1F911DA11D6A0F711D811D83
:10249000911DA11D20D009F468943F912AE0269F48
:1024A00011243019305D3193DEF6CF010895462FA7
:1024B0004770405D4193B3E00FD0C9F7F6CF462F88
:1024C0004F70405D4A3318F0495D31FD40524193F1
:1024D00002D0A9F7EACFB4E0A695979587957795AE
:1024E0006795BA95C9F700976105710508959B0135
:1024F000AC010A2E06945795479537952795BA95BE
:10250000C9F7620F731F841F951FA01D08952F9296
:102510003F924F925F926F927F928F929F92AF9273
:10252000BF92CF92DF92EF92FF920F931F93CF93C0
:10253000DF93CDB7DEB7CA1BDB0B0FB6F894DEBF57
:102540000FBECDBF09942A88398848885F846E847D
:102550007D848C849B84AA84B984C884DF80EE80C7
:10256000FD800C811B81AA81B981CE0FD11D0FB6D0
:10257000F894DEBF0FBECDBFED010895F894FFCFF4
:102580007DA802A80200006504800000000000167B
:10259000019200DF00BD00D1005D016E616E006937
:1025A0006E66006F7666002E000D0A002578003DED
:1025B0003D3D3D3D3D3D3D3D3D3D3D3D3D3D3D3D4B
:1025C0003D3D3D3D3D3D3D3D3D3D3D3D3D3D3D3D3B
:1025D0003D3D3D3D3D3D3D3D3D3D3D3D3D3D3D3D2B
:1025E0003D3D3D3D3D3D3D3D3D3D3D3D3D3D005342
:1025F000746F7265643A2025640A006275666665C8
:10260000722E726561643A205B25645D20090025A5
:1026100075006C643A0925640A0069643A09256406
:102620000A0069645F633A0925640A006261743ACA
:102630000925640A0063683A0925640A0074656D17
:1026400070463A092030782558200A0074656D706C
:10265000433A09200068756D3A0925640A006372DF
:10266000633A0925640A007261773A09002D2D2D1D
:102670002D2D2D2D2D2D2D2D2D2D2D2D2D2D2D2D8A
:102680002D2D2D2D2D2D2D2D2D2D2D2D2D2D2D2D7A
:102690002D2D2D2D2D2D2D2D2D2D2D2D2D2D2D2D6A
:1026A0002D2D2D2D2D2D2D2D2D0046554E43200940
:1026B00049443A202564205B25645D0900543A2092
:1026C00000483A20005458200949443A202564091A
:1026D000004275666665722D494E2D4572726F72A5
:0226E0000000F8
:107800000C94343C0C94513C0C94513C0C94513CE1
:107810000C94513C0C94513C0C94513C0C94513CB4
:107820000C94513C0C94513C0C94513C0C94513CA4
:107830000C94513C0C94513C0C94513C0C94513C94
:107840000C94513C0C94513C0C94513C0C94513C84
:107850000C94513C0C94513C0C94513C0C94513C74
:107860000C94513C0C94513C11241FBECFEFD8E036
:10787000DEBFCDBF11E0A0E0B1E0ECE9FFE702C060
:1078800005900D92A230B107D9F712E0A2E0B1E065
:1078900001C01D92AD30B107E1F70E942D3D0C945F
:1078A000CC3F0C94003C982F959595959595959582
:1078B000905D8F708A307CF0282F295A8091C0000B
:1078C00085FFFCCF9093C6008091C00085FFFCCF60
:1078D0002093C6000895282F205DF0CF982F809127
:1078E000C00085FFFCCF9093C6000895EF92FF92F1
:1078F0000F931F93EE24FF2487018091C00087FD22
:1079000017C00894E11CF11C011D111D81E4E8164B
:1079100082E4F8068FE0080780E0180770F3E09132
:107920000401F091050109958091C00087FFE9CF1E
:107930008091C6001F910F91FF90EF9008950E94D3
:10794000763C982F8091C00085FFFCCF9093C600B5
:1079500091362CF490330CF09053892F089597555D
:10796000892F08951F930E949F3C182F0E949F3CCF
:107970001295107F810F1F9108951F93182F882350
:1079800021F00E94763C1150E1F71F9108951F935A
:10799000182F0E94763C803249F0809103018F5F5E
:1079A000809303018530C1F01F9108958091C0003C
:1079B00085FFFCCF84E18093C6008091C00085FFE5
:1079C000FCCF1093C6008091C00085FFFCCF80E102
:1079D0008093C6001F910895E0910401F091050184
:1079E00009951F9108950E94763C803241F0809164
:1079F00003018F5F80930301853081F008958091AA
:107A0000C00085FFFCCF84E18093C6008091C00058
:107A100085FFFCCF80E18093C6000895E0910401CA
:107A2000F09105010995089540E951E08823A1F0FE
:107A30002D9A28EE33E0FA013197F1F721503040CA
:107A4000D1F72D9828EE33E0FA013197F1F7215064
:107A50003040D1F7815061F708953F924F925F9285
:107A60006F927F928F929F92AF92BF92CF92DF924E
:107A7000EF92FF920F931F93CF93DF93000080E16B
:107A80008093C4001092C50088E18093C10086E015
:107A90008093C2005098589A259A81E00E94143D24
:107AA00024E1F22E9EE1E92E85E9D82E0FE0C02ECA
:107AB00010E1B12EAA24A394B1E49B2EA6E58A2E50
:107AC000F2E57F2EE0E26E2E79E4572E63E5462E36
:107AD00050E5352E0E94763C8033B1F18133B9F107
:107AE000803409F46FC0813409F476C0823409F41B
:107AF00085C0853409F488C0803531F1823521F1A3
:107B0000813511F1853509F485C0863509F48DC0BC
:107B1000843609F496C0843709F403C1853709F423
:107B200072C1863709F466C0809103018F5F80932C
:107B30000301853079F6E0910401F0910501099582
:107B40000E94763C803351F60E94F33CC3CF0E94E2
:107B5000763C803249F78091C00085FFFCCFF092DF
:107B6000C6008091C00085FFFCCF9092C600809136
:107B7000C00085FFFCCF8092C6008091C00085FFC9
:107B8000FCCF7092C6008091C00085FFFCCF609250
:107B9000C6008091C00085FFFCCF5092C600809146
:107BA000C00085FFFCCF4092C6008091C00085FFD9
:107BB000FCCF3092C6008091C00085FFFCCFB09210
:107BC000C60088CF0E94763C863808F4BDCF0E945C
:107BD000763C0E94F33C7ECF0E94763C803809F4CC
:107BE0009CC0813809F40BC1823809F43CC1883942
:107BF00009F48FC080E00E94C73C6CCF84E10E94F2
:107C0000BD3C0E94F33C66CF85E00E94BD3C0E94D3
:107C1000F33C60CF0E94763C809306010E94763C44
:107C2000809307010E94F33C55CF0E94763C80333D
:107C300009F41DC183E00E94BD3C80E00E94C73C66
:107C400049CF0E94763C809309020E94763C809343
:107C5000080280910C028E7F80930C020E94763C79
:107C6000853409F415C18091080290910902892B8D
:107C700089F000E010E00E94763CF801E85FFE4FDA
:107C800080830F5F1F4F80910802909109020817AF
:107C9000190788F30E94763C803209F045CF809125
:107CA0000C0280FF01C16091060170910701660F0F
:107CB000771F7093070160930601A0910802B091AD
:107CC00009021097C9F0E8E0F1E09B01AD014E0F09
:107CD0005F1FF999FECF32BD21BD819180BDFA9A17
:107CE000F99A2F5F3F4FE417F50799F76A0F7B1F4B
:107CF00070930701609306018091C00085FFFCCF5F
:107D0000F092C6008091C00085FFFCCFB092C60003
:107D1000E1CE83E00E94C73CDDCE82E00E94C73CFA
:107D2000D9CE0E94763C809309020E94763C8093D3
:107D300008028091060190910701880F991F909386
:107D40000701809306010E94763C853409F4A6C0A1
:107D500080910C028E7F80930C020E94763C8032D0
:107D600009F0B8CE8091C00085FFFCCFF092C6002C
:107D7000609108027091090261157105B9F140E046
:107D800050E080910C02A82FA170B82FB27011C0E2
:107D9000BB2309F45CC0E0910601F0910701319624
:107DA000F0930701E09306014F5F5F4F46175707B7
:107DB000E8F4AA2369F3F999FECF209106013091E6
:107DC000070132BD21BDF89A90B58091C00085FFB2
:107DD000FCCF9093C6002F5F3F4F30930701209355
:107DE00006014F5F5F4F4617570718F38091C00099
:107DF00085FDE5CE8091C00085FFF8CFE0CE81E023
:107E00000E94C73C67CE0E94763C803209F08CCE3F
:107E10008091C00085FFFCCFF092C6008091C00029
:107E200085FFFCCFE092C6008091C00085FFFCCFAB
:107E3000D092C6008091C00085FFFCCFC092C600E2
:107E40008091C00085FFFCCFB092C60043CEE09188
:107E50000601F091070194918091C00085FFFCCF4D
:107E60009093C6009CCF80E10E94C73C33CE0E9415
:107E7000763C0E94763C182F0E94763C112309F430
:107E800083C0113009F484C08FE00E94C73C22CE29
:107E900080910C02816080930C02E5CE80910C02EF
:107EA000816080930C0259CF809107018823880F4D
:107EB000880B8A2180930B02809106019091070123
:107EC000880F991F90930701809306018091080203
:107ED00080FF09C080910802909109020196909359
:107EE000090280930802F894F999FECF1127E091D6
:107EF0000601F0910701C8E0D1E08091080290915D
:107F00000902103091F40091570001700130D9F34B
:107F100003E000935700E89500915700017001308D
:107F2000D9F301E100935700E89509901990009169
:107F3000570001700130D9F301E000935700E89534
:107F40001395103498F011270091570001700130FB
:107F5000D9F305E000935700E895009157000170B0
:107F60000130D9F301E100935700E895329602976A
:107F700009F0C7CF103011F00296E5CF112480919F
:107F8000C00085FFB9CEBCCE8EE10E94C73CA2CD19
:0C7F900085E90E94C73C9ECDF894FFCF0D
:027F9C00800063
:040000030000780081
:00000001FF